{
  "contractName": "RealEstateMarketplace",
  "abi": [
    {
      "anonymous": false,
      "inputs": [
        {
          "indexed": false,
          "internalType": "uint256",
          "name": "id",
          "type": "uint256"
        },
        {
          "indexed": false,
          "internalType": "address",
          "name": "owner",
          "type": "address"
        },
        {
          "indexed": false,
          "internalType": "string",
          "name": "description",
          "type": "string"
        },
        {
          "indexed": false,
          "internalType": "uint256",
          "name": "price",
          "type": "uint256"
        }
      ],
      "name": "PropertyRegistered",
      "type": "event"
    },
    {
      "anonymous": false,
      "inputs": [
        {
          "indexed": false,
          "internalType": "uint256",
          "name": "id",
          "type": "uint256"
        },
        {
          "indexed": false,
          "internalType": "address",
          "name": "newOwner",
          "type": "address"
        },
        {
          "indexed": false,
          "internalType": "uint256",
          "name": "price",
          "type": "uint256"
        }
      ],
      "name": "PropertySold",
      "type": "event"
    },
    {
      "inputs": [
        {
          "internalType": "uint256",
          "name": "",
          "type": "uint256"
        }
      ],
      "name": "properties",
      "outputs": [
        {
          "internalType": "uint256",
          "name": "id",
          "type": "uint256"
        },
        {
          "internalType": "address payable",
          "name": "owner",
          "type": "address"
        },
        {
          "internalType": "string",
          "name": "description",
          "type": "string"
        },
        {
          "internalType": "uint256",
          "name": "price",
          "type": "uint256"
        },
        {
          "internalType": "bool",
          "name": "isForSale",
          "type": "bool"
        }
      ],
      "stateMutability": "view",
      "type": "function",
      "constant": true
    },
    {
      "inputs": [],
      "name": "propertyCount",
      "outputs": [
        {
          "internalType": "uint256",
          "name": "",
          "type": "uint256"
        }
      ],
      "stateMutability": "view",
      "type": "function",
      "constant": true
    },
    {
      "inputs": [
        {
          "internalType": "string",
          "name": "_description",
          "type": "string"
        },
        {
          "internalType": "uint256",
          "name": "_price",
          "type": "uint256"
        }
      ],
      "name": "registerProperty",
      "outputs": [],
      "stateMutability": "nonpayable",
      "type": "function"
    },
    {
      "inputs": [
        {
          "internalType": "uint256",
          "name": "_id",
          "type": "uint256"
        }
      ],
      "name": "buyProperty",
      "outputs": [],
      "stateMutability": "payable",
      "type": "function",
      "payable": true
    },
    {
      "inputs": [],
      "name": "getProperties",
      "outputs": [
        {
          "components": [
            {
              "internalType": "uint256",
              "name": "id",
              "type": "uint256"
            },
            {
              "internalType": "address payable",
              "name": "owner",
              "type": "address"
            },
            {
              "internalType": "string",
              "name": "description",
              "type": "string"
            },
            {
              "internalType": "uint256",
              "name": "price",
              "type": "uint256"
            },
            {
              "internalType": "bool",
              "name": "isForSale",
              "type": "bool"
            }
          ],
          "internalType": "struct RealEstateMarketplace.Property[]",
          "name": "",
          "type": "tuple[]"
        }
      ],
      "stateMutability": "view",
      "type": "function",
      "constant": true
    }
  ],
  "bytecode": "0x60806040526000805534801561001457600080fd5b50610fe8806100246000396000f3fe60806040526004361061004a5760003560e01c80636fa830a61461004f5780637c5397181461006b578063c361a33514610094578063ec0cfd0b146100bf578063f7b10808146100ea575b600080fd5b61006960048036038101906100649190610942565b61012b565b005b34801561007757600080fd5b50610092600480360381019061008d91906108ee565b6102ec565b005b3480156100a057600080fd5b506100a9610437565b6040516100b69190610c27565b60405180910390f35b3480156100cb57600080fd5b506100d461043d565b6040516100e19190610bc5565b60405180910390f35b3480156100f657600080fd5b50610111600480360381019061010c9190610942565b61069c565b604051610122959493929190610c42565b60405180910390f35b60006001600083815260200190815260200160002090508060040160009054906101000a900460ff16610193576040517f08c379a000000000000000000000000000000000000000000000000000000000815260040161018a90610be7565b60405180910390fd5b80600301543410156101da576040517f08c379a00000000000000000000000000000000000000000000000000000000081526004016101d190610c07565b60405180910390fd5b8060010160009054906101000a900473ffffffffffffffffffffffffffffffffffffffff1673ffffffffffffffffffffffffffffffffffffffff166108fc82600301549081150290604051600060405180830381858888f19350505050158015610248573d6000803e3d6000fd5b50338160010160006101000a81548173ffffffffffffffffffffffffffffffffffffffff021916908373ffffffffffffffffffffffffffffffffffffffff16021790555060008160040160006101000a81548160ff0219169083151502179055507ff17a6666765db393a6218bb324c4de5cc60c9ee3b981bd102ba416effc13b895823383600301546040516102e093929190610ce8565b60405180910390a15050565b6000808154809291906102fe90610eb4565b91905055506040518060a0016040528060005481526020013373ffffffffffffffffffffffffffffffffffffffff1681526020018381526020018281526020016001151581525060016000805481526020019081526020016000206000820151816000015560208201518160010160006101000a81548173ffffffffffffffffffffffffffffffffffffffff021916908373ffffffffffffffffffffffffffffffffffffffff16021790555060408201518160020190805190602001906103c6929190610787565b506060820151816003015560808201518160040160006101000a81548160ff0219169083151502179055509050507f4a94c8d5fab40a5edfd34ed099a279029ee376bf6a571684e0cffd8e00216dbc60005433848460405161042b9493929190610c9c565b60405180910390a15050565b60005481565b60606000805467ffffffffffffffff811115610482577f4e487b7100000000000000000000000000000000000000000000000000000000600052604160045260246000fd5b6040519080825280602002602001820160405280156104bb57816020015b6104a861080d565b8152602001906001900390816104a05790505b509050600080600190505b6000548111610693576001600082815260200190815260200160002060040160009054906101000a900460ff161561068057600160008281526020019081526020016000206040518060a0016040529081600082015481526020016001820160009054906101000a900473ffffffffffffffffffffffffffffffffffffffff1673ffffffffffffffffffffffffffffffffffffffff1673ffffffffffffffffffffffffffffffffffffffff16815260200160028201805461058690610e82565b80601f01602080910402602001604051908101604052809291908181526020018280546105b290610e82565b80156105ff5780601f106105d4576101008083540402835291602001916105ff565b820191906000526020600020905b8154815290600101906020018083116105e257829003601f168201915b50505050508152602001600382015481526020016004820160009054906101000a900460ff161515151581525050838381518110610666577f4e487b7100000000000000000000000000000000000000000000000000000000600052603260045260246000fd5b6020026020010181905250818061067c90610eb4565b9250505b808061068b90610eb4565b9150506104c6565b50819250505090565b60016020528060005260406000206000915090508060000154908060010160009054906101000a900473ffffffffffffffffffffffffffffffffffffffff16908060020180546106eb90610e82565b80601f016020809104026020016040519081016040528092919081815260200182805461071790610e82565b80156107645780601f1061073957610100808354040283529160200191610764565b820191906000526020600020905b81548152906001019060200180831161074757829003601f168201915b5050505050908060030154908060040160009054906101000a900460ff16905085565b82805461079390610e82565b90600052602060002090601f0160209004810192826107b557600085556107fc565b82601f106107ce57805160ff19168380011785556107fc565b828001600101855582156107fc579182015b828111156107fb5782518255916020019190600101906107e0565b5b5090506108099190610854565b5090565b6040518060a0016040528060008152602001600073ffffffffffffffffffffffffffffffffffffffff16815260200160608152602001600081526020016000151581525090565b5b8082111561086d576000816000905550600101610855565b5090565b600061088461087f84610d50565b610d1f565b90508281526020810184848401111561089c57600080fd5b6108a7848285610e40565b509392505050565b600082601f8301126108c057600080fd5b81356108d0848260208601610871565b91505092915050565b6000813590506108e881610f9b565b92915050565b6000806040838503121561090157600080fd5b600083013567ffffffffffffffff81111561091b57600080fd5b610927858286016108af565b9250506020610938858286016108d9565b9150509250929050565b60006020828403121561095457600080fd5b6000610962848285016108d9565b91505092915050565b60006109778383610b31565b905092915050565b61098881610df8565b82525050565b61099781610df8565b82525050565b6109a681610de6565b82525050565b60006109b782610d90565b6109c18185610db3565b9350836020820285016109d385610d80565b8060005b85811015610a0f57848403895281516109f0858261096b565b94506109fb83610da6565b925060208a019950506001810190506109d7565b50829750879550505050505092915050565b610a2a81610e0a565b82525050565b610a3981610e0a565b82525050565b6000610a4a82610d9b565b610a548185610dc4565b9350610a64818560208601610e4f565b610a6d81610f8a565b840191505092915050565b6000610a8382610d9b565b610a8d8185610dd5565b9350610a9d818560208601610e4f565b610aa681610f8a565b840191505092915050565b6000610abe601d83610dd5565b91507f4c612070726f707269657461206e6f6e206520696e2076656e646974610000006000830152602082019050919050565b6000610afe601583610dd5565b91507f496d706f72746f20696e73756666696369656e746500000000000000000000006000830152602082019050919050565b600060a083016000830151610b496000860182610ba7565b506020830151610b5c602086018261097f565b5060408301518482036040860152610b748282610a3f565b9150506060830151610b896060860182610ba7565b506080830151610b9c6080860182610a21565b508091505092915050565b610bb081610e36565b82525050565b610bbf81610e36565b82525050565b60006020820190508181036000830152610bdf81846109ac565b905092915050565b60006020820190508181036000830152610c0081610ab1565b9050919050565b60006020820190508181036000830152610c2081610af1565b9050919050565b6000602082019050610c3c6000830184610bb6565b92915050565b600060a082019050610c576000830188610bb6565b610c64602083018761098e565b8181036040830152610c768186610a78565b9050610c856060830185610bb6565b610c926080830184610a30565b9695505050505050565b6000608082019050610cb16000830187610bb6565b610cbe602083018661099d565b8181036040830152610cd08185610a78565b9050610cdf6060830184610bb6565b95945050505050565b6000606082019050610cfd6000830186610bb6565b610d0a602083018561099d565b610d176040830184610bb6565b949350505050565b6000604051905081810181811067ffffffffffffffff82111715610d4657610d45610f5b565b5b8060405250919050565b600067ffffffffffffffff821115610d6b57610d6a610f5b565b5b601f19601f8301169050602081019050919050565b6000819050602082019050919050565b600081519050919050565b600081519050919050565b6000602082019050919050565b600082825260208201905092915050565b600082825260208201905092915050565b600082825260208201905092915050565b6000610df182610e16565b9050919050565b6000610e0382610e16565b9050919050565b60008115159050919050565b600073ffffffffffffffffffffffffffffffffffffffff82169050919050565b6000819050919050565b82818337600083830152505050565b60005b83811015610e6d578082015181840152602081019050610e52565b83811115610e7c576000848401525b50505050565b60006002820490506001821680610e9a57607f821691505b60208210811415610eae57610ead610f2c565b5b50919050565b6000610ebf82610e36565b91507fffffffffffffffffffffffffffffffffffffffffffffffffffffffffffffffff821415610ef257610ef1610efd565b5b600182019050919050565b7f4e487b7100000000000000000000000000000000000000000000000000000000600052601160045260246000fd5b7f4e487b7100000000000000000000000000000000000000000000000000000000600052602260045260246000fd5b7f4e487b7100000000000000000000000000000000000000000000000000000000600052604160045260246000fd5b6000601f19601f8301169050919050565b610fa481610e36565b8114610faf57600080fd5b5056fea2646970667358221220fe171cbbdd1f94ef74182c08f8bb728c1e1cd8a3d5151ebda23ad4f7deab85b064736f6c63430008000033",
  "immutableReferences": {},
  "source": "// SPDX-License-Identifier: MIT\r\npragma solidity ^0.8.0;\r\n\r\ncontract RealEstateMarketplace {\r\n\r\n    struct Property {\r\n        uint256 id;\r\n        address payable owner;\r\n        string description;\r\n        uint256 price;\r\n        bool isForSale;\r\n    }\r\n\r\n    uint256 public propertyCount = 0;\r\n    mapping(uint256 => Property) public properties;\r\n\r\n    // Evento per la registrazione delle propriet\r\n    event PropertyRegistered(uint256 id, address owner, string description, uint256 price);\r\n\r\n    // Evento per la vendita delle propriet\r\n    event PropertySold(uint256 id, address newOwner, uint256 price);\r\n\r\n    // Registrazione di una nuova propriet\r\n    function registerProperty(string memory _description, uint256 _price) public {\r\n        propertyCount++;\r\n        properties[propertyCount] = Property(propertyCount, payable(msg.sender), _description, _price, true);\r\n        emit PropertyRegistered(propertyCount, msg.sender, _description, _price);\r\n    }\r\n\r\n    // Acquisto di una propriet\r\n    function buyProperty(uint256 _id) public payable {\r\n        Property storage property = properties[_id];\r\n        require(property.isForSale, \"La proprieta non e in vendita\");\r\n        require(msg.value >= property.price, \"Importo insufficiente\");\r\n\r\n        // Pagamento al proprietario\r\n        property.owner.transfer(property.price);\r\n        \r\n        // Cambio di propriet\r\n        property.owner = payable(msg.sender);\r\n        property.isForSale = false;\r\n\r\n        emit PropertySold(_id, msg.sender, property.price);\r\n    }\r\n\r\n    // Visualizzazione di tutte le propriet disponibili\r\n    function getProperties() public view returns (Property[] memory) {\r\n        Property[] memory availableProperties = new Property[](propertyCount);\r\n        uint256 counter = 0;\r\n        for (uint256 i = 1; i <= propertyCount; i++) {\r\n            if (properties[i].isForSale) {\r\n                availableProperties[counter] = properties[i];\r\n                counter++;\r\n            }\r\n        }\r\n        return availableProperties;\r\n    }\r\n}\r\n",
  "sourcePath": "C:\\LAVORO\\UNIFI\\RealEstateContract\\contracts\\RealEstateContract.sol",
  "compiler": {
    "name": "solc",
    "version": "0.8.0+commit.c7dfd78e.Emscripten.clang"
  },
  "schemaVersion": "3.4.16",
  "updatedAt": "2025-04-02T08:15:44.250Z",
  "networkType": "ethereum",
  "devdoc": {
    "kind": "dev",
    "methods": {},
    "version": 1
  },
  "userdoc": {
    "kind": "user",
    "methods": {},
    "version": 1
  }
}